{
  "contractName": "Oracle",
  "abi": [
    {
      "anonymous": false,
      "inputs": [
        {
          "indexed": true,
          "internalType": "address",
          "name": "previousOwner",
          "type": "address"
        },
        {
          "indexed": true,
          "internalType": "address",
          "name": "newOwner",
          "type": "address"
        }
      ],
      "name": "OwnershipTransferred",
      "type": "event"
    },
    {
      "inputs": [],
      "name": "owner",
      "outputs": [
        {
          "internalType": "address",
          "name": "",
          "type": "address"
        }
      ],
      "stateMutability": "view",
      "type": "function"
    },
    {
      "inputs": [
        {
          "internalType": "uint256",
          "name": "",
          "type": "uint256"
        }
      ],
      "name": "relayers",
      "outputs": [
        {
          "internalType": "address",
          "name": "",
          "type": "address"
        }
      ],
      "stateMutability": "view",
      "type": "function"
    },
    {
      "inputs": [],
      "name": "renounceOwnership",
      "outputs": [],
      "stateMutability": "nonpayable",
      "type": "function"
    },
    {
      "inputs": [
        {
          "internalType": "address",
          "name": "newOwner",
          "type": "address"
        }
      ],
      "name": "transferOwnership",
      "outputs": [],
      "stateMutability": "nonpayable",
      "type": "function"
    },
    {
      "inputs": [
        {
          "internalType": "address",
          "name": "_relayer",
          "type": "address"
        }
      ],
      "name": "addRelayer",
      "outputs": [],
      "stateMutability": "nonpayable",
      "type": "function"
    },
    {
      "inputs": [
        {
          "internalType": "address",
          "name": "_relayer",
          "type": "address"
        }
      ],
      "name": "deleteRelayer",
      "outputs": [],
      "stateMutability": "nonpayable",
      "type": "function"
    },
    {
      "inputs": [],
      "name": "oneInUsd",
      "outputs": [
        {
          "internalType": "bool",
          "name": "valid",
          "type": "bool"
        },
        {
          "internalType": "uint256",
          "name": "rate",
          "type": "uint256"
        }
      ],
      "stateMutability": "view",
      "type": "function"
    },
    {
      "inputs": [],
      "name": "hclnyInUsd",
      "outputs": [
        {
          "internalType": "bool",
          "name": "valid",
          "type": "bool"
        },
        {
          "internalType": "uint256",
          "name": "rate",
          "type": "uint256"
        }
      ],
      "stateMutability": "view",
      "type": "function"
    },
    {
      "inputs": [
        {
          "internalType": "uint256",
          "name": "price",
          "type": "uint256"
        }
      ],
      "name": "actualize",
      "outputs": [],
      "stateMutability": "nonpayable",
      "type": "function"
    },
    {
      "inputs": [],
      "name": "stop",
      "outputs": [],
      "stateMutability": "nonpayable",
      "type": "function"
    }
  ],
  "bytecode": "0x608060405234801561001057600080fd5b5061001a3361001f565b61006f565b600080546001600160a01b038381166001600160a01b0319831681178455604051919092169283917f8be0079c531659141344cd1fd0a4f28419497f9722a3daafe3b4186f6b6457e09190a35050565b6109398061007e6000396000f3fe608060405234801561001057600080fd5b506004361061009e5760003560e01c80639a48e7f9116100665780639a48e7f914610111578063ca9bf0b714610124578063dcae911414610137578063dd39f00d1461013f578063f2fde38b1461015257600080fd5b806307da68f5146100a35780630b26d018146100ad578063649a866d146100c0578063715018a6146100e45780638da5cb5b146100ec575b600080fd5b6100ab610165565b005b6100ab6100bb3660046107cf565b6101db565b6100c86102e1565b6040805192151583526020830191909152015b60405180910390f35b6100ab61043f565b6000546001600160a01b03165b6040516001600160a01b0390911681526020016100db565b6100f961011f3660046107ff565b610475565b6100ab6101323660046107ff565b61049f565b6100c86104eb565b6100ab61014d3660046107cf565b610501565b6100ab6101603660046107cf565b610665565b61016e336106fd565b8061018357506000546001600160a01b031633145b6101d45760405162461bcd60e51b815260206004820152601960248201527f6e6569746865722072656c61796572206e6f72206f776e65720000000000000060448201526064015b60405180910390fd5b6000600355565b6000546001600160a01b031633146102055760405162461bcd60e51b81526004016101cb90610818565b61020e816106fd565b61025a5760405162461bcd60e51b815260206004820152601f60248201527f746869732061646472657373206973206e6f7420696e2072656c61796572730060448201526064016101cb565b60005b6001548110156102dd57816001600160a01b0316600182815481106102845761028461084d565b6000918252602090912001546001600160a01b0316036102cb57600181815481106102b1576102b161084d565b600091825260209091200180546001600160a01b03191690555b806102d581610879565b91505061025d565b5050565b6040516370a0823160e01b815273cd818813f038a4d1a27c84d24d74bbc21551fa8360048201526000908190819073cf664087a5bb0237a0bad6742852ec6c8d69a27a906370a0823190602401602060405180830381865afa15801561034b573d6000803e3d6000fd5b505050506040513d601f19601f8201168201806040525081019061036f9190610892565b6040516370a0823160e01b815273cd818813f038a4d1a27c84d24d74bbc21551fa836004820152909150600090730d625029e21540abdfafa3bfc6fd44fb4e0a66d0906370a0823190602401602060405180830381865afa1580156103d8573d6000803e3d6000fd5b505050506040513d601f19601f820116820180604052508101906103fc9190610892565b905060008161041384670de0b6b3a76400006108ab565b61041d91906108ca565b9050610427610766565b60025461043490836108ab565b945094505050509091565b6000546001600160a01b031633146104695760405162461bcd60e51b81526004016101cb90610818565b610473600061077f565b565b6001818154811061048557600080fd5b6000918252602090912001546001600160a01b0316905081565b6104a8336106fd565b6104e25760405162461bcd60e51b815260206004820152600b60248201526a3737ba103932b630bcb2b960a91b60448201526064016101cb565b42600355600255565b6000806104f6610766565b600254915091509091565b6000546001600160a01b0316331461052b5760405162461bcd60e51b81526004016101cb90610818565b610534816106fd565b156105795760405162461bcd60e51b815260206004820152601560248201527472656c6179657220616464656420616c726561647960581b60448201526064016101cb565b60005b6001548110156106165760006001600160a01b0316600182815481106105a4576105a461084d565b6000918252602090912001546001600160a01b0316036106045781600182815481106105d2576105d261084d565b9060005260206000200160006101000a8154816001600160a01b0302191690836001600160a01b031602179055505050565b8061060e81610879565b91505061057c565b506001805480820182556000919091527fb10e2d527612073b26eecdfd717e6a320cf44b4afac2b0732d9fcbe2b7fa0cf60180546001600160a01b0319166001600160a01b0383161790555b50565b6000546001600160a01b0316331461068f5760405162461bcd60e51b81526004016101cb90610818565b6001600160a01b0381166106f45760405162461bcd60e51b815260206004820152602660248201527f4f776e61626c653a206e6577206f776e657220697320746865207a65726f206160448201526564647265737360d01b60648201526084016101cb565b6106628161077f565b6000805b60015481101561075d57826001600160a01b0316600182815481106107285761072861084d565b6000918252602090912001546001600160a01b03160361074b5750600192915050565b8061075581610879565b915050610701565b50600092915050565b60006154606003544261077991906108ec565b10905090565b600080546001600160a01b038381166001600160a01b0319831681178455604051919092169283917f8be0079c531659141344cd1fd0a4f28419497f9722a3daafe3b4186f6b6457e09190a35050565b6000602082840312156107e157600080fd5b81356001600160a01b03811681146107f857600080fd5b9392505050565b60006020828403121561081157600080fd5b5035919050565b6020808252818101527f4f776e61626c653a2063616c6c6572206973206e6f7420746865206f776e6572604082015260600190565b634e487b7160e01b600052603260045260246000fd5b634e487b7160e01b600052601160045260246000fd5b60006001820161088b5761088b610863565b5060010190565b6000602082840312156108a457600080fd5b5051919050565b60008160001904831182151516156108c5576108c5610863565b500290565b6000826108e757634e487b7160e01b600052601260045260246000fd5b500490565b6000828210156108fe576108fe610863565b50039056fea264697066735822122040fd3c26aef6ad2de7e4ea695afe883d03d2f12215997eca073c7a9e4c60b09a64736f6c634300080d0033",
  "immutableReferences": {},
  "source": "// SPDX-License-Identifier: MIT\npragma solidity >=0.8.0 <0.9.0;\n\n\nimport '@openzeppelin/contracts/token/ERC20/IERC20.sol';\nimport '@openzeppelin/contracts/access/Ownable.sol';\n\ncontract Oracle is Ownable {\n\n  address[] public relayers;\n  uint256 oneUsdRate;\n  uint256 lastUpdateTime;\n\n  IERC20 constant WONE = IERC20(0xcF664087a5bB0237a0BAd6742852ec6c8d69A27a);\n  IERC20 constant CLNY = IERC20(0x0D625029E21540aBdfAFa3BFC6FD44fB4e0A66d0);\n  IERC20 constant SLP_CLNY = IERC20(0xcd818813F038A4d1a27c84d24d74bBC21551FA83);\n\n\n  uint256 constant validityPeriod = 6 * 60 * 60; // six hours in seconds\n  \n  modifier onlyRelayer() {\n    require(isRelayerAlreadyAdded(msg.sender), \"not relayer\");\n    _;\n  }\n\n  modifier onlyRelayerOrOwner() {\n    require(isRelayerAlreadyAdded(msg.sender) || owner() == _msgSender(), \"neither relayer nor owner\");\n    _;\n  }\n\n  function isRelayerAlreadyAdded(address _relayer) private view returns (bool) {\n    for (uint i = 0; i < relayers.length; i++) {\n      if (relayers[i] == _relayer) {\n        return true;\n      }\n    }\n    return false;\n  }\n\n  function addRelayer(address _relayer) external onlyOwner {\n    require(!isRelayerAlreadyAdded(_relayer), \"relayer added already\");\n    for (uint i = 0; i < relayers.length; i++) {\n      if (relayers[i] == address(0)) {\n        relayers[i] = _relayer;\n        return;\n      }\n    }\n    relayers.push(_relayer);\n  }\n\n  function deleteRelayer(address _relayer) external onlyOwner {\n    require(isRelayerAlreadyAdded(_relayer), \"this address is not in relayers\");\n    for (uint i = 0; i < relayers.length; i++) {\n      if (relayers[i] == _relayer) {\n        delete relayers[i];\n      }\n    }\n  }\n\n  function isRateValid() private view returns (bool) {\n    return block.timestamp - lastUpdateTime < validityPeriod;\n  }\n\n  function oneInUsd() external view returns (bool valid, uint256 rate) {\n    return (isRateValid(), oneUsdRate);\n  }\n\n  function hclnyInUsd() external view returns (bool valid, uint256 rate) {\n    uint256 woneInLiq = WONE.balanceOf(address(SLP_CLNY));\n    uint256 clnyInLiq = CLNY.balanceOf(address(SLP_CLNY));\n    uint256 onePrice = woneInLiq * 1e18 / clnyInLiq;\n    return (isRateValid(), onePrice * oneUsdRate);\n  }\n\n  function actualize(uint256 price) external onlyRelayer {\n    lastUpdateTime = block.timestamp;\n    oneUsdRate = price;\n  }\n\n  function stop() external onlyRelayerOrOwner {\n    lastUpdateTime = 0;\n  }\n  \n}\n",
  "sourcePath": "/Users/maxim/work/marscolony/contracts/contracts/Oracle.sol",
  "compiler": {
    "name": "solc",
    "version": "0.8.13+commit.abaa5c0e.Emscripten.clang"
  },
  "schemaVersion": "3.4.7",
  "updatedAt": "2022-08-25T07:02:10.734Z",
  "devdoc": {
    "kind": "dev",
    "methods": {
      "owner()": {
        "details": "Returns the address of the current owner."
      },
      "renounceOwnership()": {
        "details": "Leaves the contract without owner. It will not be possible to call `onlyOwner` functions anymore. Can only be called by the current owner. NOTE: Renouncing ownership will leave the contract without an owner, thereby removing any functionality that is only available to the owner."
      },
      "transferOwnership(address)": {
        "details": "Transfers ownership of the contract to a new account (`newOwner`). Can only be called by the current owner."
      }
    },
    "version": 1
  },
  "userdoc": {
    "kind": "user",
    "methods": {},
    "version": 1
  }
}